:020000040000FA
:060000000A128A11EE2F26
:10002E0001300A168A117A250A128A110830F40054
:10003E00C930F300F30B2128F40B212826280800E1
:10004E00831603132508A70001300310A70DFF3EEA
:10005E00031D2C280310270D240784000A168A116D
:10006E000A200A128A11A8000A168A110A200A12F8
:10007E008A11A9000A168A110A200A128A11AA00E8
:10008E000A168A110A200A128A11AB002B08AF0039
:10009E002A08AE002908AD002808AC00F228FF306F
:1000AE00A5070318A60AFF30A6072508A7000130EA
:1000BE000310A70DFF3E031D5F280310270D240715
:1000CE0084000A168A110A200A128A11A8000A163A
:1000DE008A110A200A128A11A9000A168A110A2008
:1000EE000A128A11AA000A168A110A200A128A1105
:1000FE00AB002B0883120313DC00831603132A08AC
:10010E0083120313DB0083160313290883120313D0
:10011E00DA0083160313280883120313D9008316FB
:10012E0003132F0883120313A800831603132E083C
:10013E0083120313A700831603132D0883120313D0
:10014E00A600831603132C0883120313A50083162F
:10015E000313230883120313AC0083160313220820
:10016E0083120313AB0083160313210883120313A8
:10017E00AA0083160313200883120313A9000A1280
:10018E008A1101210A128A11831203132808E00032
:10019E002708DF002608DE002508DD000A128A1572
:1001AE0078250A128A11831203135C08831603132F
:1001BE00AF00831203135B0883160313AE00831282
:1001CE0003135A0883160313AD0083120313590841
:1001DE0083160313AC0025082604031DF728F82800
:1001EE0056282F08A3002E08A2002D08A1002C08C7
:1001FE00A00008008312031328088039AD002D08D3
:10020E00B2002808AD002D07AE002E08B800A71FBB
:10021E0011291229132938143808031917291829F6
:10022E002729380A031D1C291D2925290030A8005D
:10023E000030A7000030A6000030A500A7172F2918
:10024E000030A8000030A7000030A6000030A50046
:10025E002C088039AD002D08B2062C08AD002D07F4
:10026E00AE002E08B700AB1F3D293E293F2937149B
:10027E0037080319432944295329370A031D4829EE
:10028E00492951290030AC000030AB000030AA00E3
:10029E000030A900AB175B290030AC000030AB007A
:1002AE000030AA000030A900370803195F29602921
:1002BE0065293808031D642965296E290030A800B8
:1002CE000030A7000030A6000030A500612C2508E4
:1002DE00AD002D08F0002B080A168A11FD240A1213
:1002EE008A11710883120313BE007008BD003D0809
:1002FE00AD00AE01AF01B0013008B6002F08B50059
:10030E002E08B4002D08B3003E08AD00AE01AF01BB
:10031E00B0013008BC002F08BB002E08BA002D0813
:10032E00B9002608AD002D08F0002A080A168A1119
:10033E00FD240A128A11710883120313BE0070087D
:10034E00BD003D08AD00AE01AF01B0012D08B307F1
:10035E002E0803110318013E0319B629B4072F08FE
:10036E0003110318013E0319BD29B5073008031107
:10037E000318013E0319C429B6073E08AD00AE01AD
:10038E00AF01B0012D08B9072E0803110318013E65
:10039E000319D229BA072F0803110318013E0319B6
:1003AE00D929BB07300803110318013E0319E029B0
:1003BE00BC072708AD002D08F00029080A168A117F
:1003CE00FD240A128A11710883120313BE007008ED
:1003DE00BD003D08AD00AE01AF01B0012D08B30761
:1003EE002E0803110318013E0319FE29B4072F0826
:1003FE0003110318013E0319052AB507300803112E
:10040E000318013E03190C2AB6073E08AD00AE01D3
:10041E00AF01B0012D08B9072E0803110318013ED4
:10042E0003191A2ABA072F0803110318013E0319DC
:10043E00212ABB07300803110318013E0319282A8D
:10044E00BC070830AD000310B30DB40DB50DB60DDD
:10045E00AD0B2A2A2608AD002D08F00029080A1631
:10046E008A11FD240A128A11710883120313BE0029
:10047E007008BD003D08AD003E08AE00AF01B001F2
:10048E002D08B3072E0803110318013E0319502A35
:10049E00B4072F0803110318013E0319572AB50795
:1004AE00300803110318013E03195E2AB60725080A
:1004BE00AD002D08F0002A080A168A11FD240A1232
:1004CE008A11710883120313BE007008BD003D0827
:1004DE00AD003E08AE00AF01B0012D08B3072E08E7
:1004EE0003110318013E03197D2AB4072F080311C7
:1004FE000318013E0319842AB507300803110318A7
:10050E00013E03198B2AB6070830AD000310B30D58
:10051E00B40DB50DB60DAD0B8D2A2508AD002D0809
:10052E00F00029080A168A11FD240A128A11710890
:10053E0083120313BE007008BD003D08AD003E08D7
:10054E00AE00AF01B0012D08B3072E08031103183A
:10055E00013E0319B32AB4072F0803110318013EF5
:10056E000319BA2AB507300803110318013E0319FF
:10057E00C12AB6072608AD002D08F0002B080A1672
:10058E008A11FD240A128A11710883120313BE0008
:10059E007008BD003D08AD003E08AE00AF01B001D1
:1005AE002D08B9072E0803110318013E0319E02A7E
:1005BE00BA072F0803110318013E0319E72ABB07D8
:1005CE00300803110318013E0319EE2ABC07270851
:1005DE00AD002D08F0002A080A168A11FD240A1211
:1005EE008A11710883120313BE007008BD003D0806
:1005FE00AD003E08AE00AF01B0012D08B9072E08C0
:10060E0003110318013E03190D2BBA072F0803110E
:10061E000318013E0319142BBB07300803110318EE
:10062E00013E03191B2BBC072708AD002D08F00057
:10063E002B080A168A11FD240A128A1171088312D8
:10064E000313BE007008BD003D08AD003E08AE00AD
:10065E00AF01B00108300310AD0DAE0DAF0DB00DF2
:10066E00FF3E031D322B2D08B9072E080311031868
:10067E00013E0319432BBA072F0803110318013E3D
:10068E0003194A2BBB07300803110318013E031947
:10069E00512BBC073308AD003408AE003508AF004F
:1006AE003608B00018300310B00CAF0CAE0CAD0C09
:1006BE00FF3E031D5A2B2D08B9072E0803110318F0
:1006CE00013E03196B2BBA072F0803110318013EC5
:1006DE000319722BBB07300803110318013E0319CF
:1006EE00792BBC070830AD000310B30DB40DB50D5A
:1006FE00B60DAD0B7B2B38083707AD00AE01AE0D36
:10070E002D08823EBD002E080318013EFF3EBE009E
:10071E00AD2B0130AD000310B90DBA0DBB0DBC0DE4
:10072E00AD0B922BB61F9C2B9D2B9E2B391401309B
:10073E00AD000310B30DB40DB50DB60DAD0BA02B62
:10074E00FF30BD070318BE0AFF30BE07BB1FB02B1C
:10075E00B12B902BB701B61FB52BB62BD22BFF307A
:10076E003305AD00FF303405AE00FF303505AF0068
:10077E007F303605B00030082F042E042D040319E7
:10078E00C92BCA2BCD2BB701B70AD22B391CD02BB4
:10079E00D12BD22BCA2B37080319D62BD72B082CCB
:1007AE000130B907003003180130BA0700300318C2
:1007BE000130BB07003003180130BC073C1CE82B8E
:1007CE00E92B082C3908AD003A08AE003B08AF0003
:1007DE003C08B0000130B100300DB00CAF0CAE0CC7
:1007EE00AD0CB10BF32B3008BC002F08BB002E084C
:1007FE00BA002D08B9000130BD070318BE0A00303B
:10080E00BE073E08803AFF0080307F02031D112C88
:10081E00FF303D02031C142C152C202C7F3083122C
:10082E000313BC008030BB000030BA000030B900AA
:10083E00552C831203133E08803AFF0080307F024E
:10084E00031D2B2C01303D0203182E2C2F2C3B2C7C
:10085E00003083120313BC000030BB000030BA001E
:10086E000030B900B201552C831203133D08AD00C0
:10087E002D08B800FF30B905FF30BA057F30BB0533
:10088E000030BC05381C4C2C4D2C4E2CBB17380898
:10089E00AD0003102D0CAE002E08BC003208AD00CA
:1008AE002D08BC043C08A8003B08A7003A08A60087
:1008BE003908A50008007130831603138F000A163D
:1008CE008A1124250A128A118316031388018901BD
:1008DE00051401308316031788008316031387143B
:1008EE00071487159F171F129F12C330831203130D
:1008FE009F051F083F3940389F001F141F30831675
:10090E000313C2007130C1001D30C000C00B8D2C0E
:10091E00C10B8D2CC20B8D2C942CF5012F30831610
:10092E000313C0004008F60001300A168A114E2546
:10093E000A128A11153083160313C2004B30C10000
:10094E00BD30C000C00BA92CC10BA92CC20BA92C09
:10095E00B02C0A128A1117200A128A11831203135D
:10096E0089018801831203139F149F18BF2CC02C7A
:10097E00BC2C1E0883160313C000C1014008E800FA
:10098E004108E9006808C100C0011E084007C20006
:10099E000030031801304107C3004208E800430845
:1009AE00E9006808F0006908F100F201F301003077
:1009BE000A128A1592200A128A11730883160313DB
:1009CE00E5007208E4007108E3007008E2004430AC
:1009DE00A7007F30A600C030A5000030A400650837
:1009EE00A3006408A2006308A1006208A0000A1612
:1009FE008A11B2260A128A11831603132308AB003A
:100A0E002208AA002108A9002008A8000A128A15A7
:100A1E0000200A128A11831603132B08D1002A080C
:100A2E00D0002908CF002808CE00C130831203134E
:100A3E00DC002030DB000030DA000030D9008316F5
:100A4E0003135108F3005008F2004F08F1004E084E
:100A5E00F00001300A128A1592200A128A117308C8
:100A6E0083120313C2007208C1007108C00070081F
:100A7E00BF004630C6002030C5002830C40000300C
:100A8E00C3000A128A159B230A128A1183120313BA
:100A9E004208E0004108DF004008DE003F08DD00AC
:100AAE000A128A1578250A128A11831203135C081A
:100ABE0083160313D500831203135B0883160313E7
:100ACE00D400831203135A0883160313D300831220
:100ADE000313590883160313D200413083120313F4
:100AEE00C2002030C1000030C0000030BF008316AD
:100AFE000313550883120313C600831603135408F9
:100B0E0083120313C50083160313530883120313B2
:100B1E00C40083160313520883120313C3000A1270
:100B2E008A159B230A128A11831203134208831615
:100B3E000313B30083120313410883160313B20089
:100B4E0083120313400883160313B1008312031399
:100B5E003F0883160313B0000A128A154F220A1299
:100B6E008A11831603133308D9003208D8003108CE
:100B7E00D7003008D600413083120313DC005B30FF
:100B8E00DB009830DA00EA30D900831603135908D7
:100B9E0083120313E0008316031358088312031302
:100BAE00DF0083160313570883120313DE00831628
:100BBE000313560883120313DD000A128A157825D3
:100BCE000A128A11831203135C08C2005B08C1006B
:100BDE005A08C0005908BF004530C6007F30C50016
:100BEE00A030C4000030C3000A128A159B230A12DB
:100BFE008A1183120313420883160313DD00831236
:100C0E000313410883160313DC00831203134008F9
:100C1E0083160313DB00831203133F08831603139B
:100C2E00DA00C33083120313DC008830DB0080301F
:100C3E00DA000030D900831603135D088312031304
:100C4E00E000831603135C0883120313DF00831680
:100C5E0003135B0883120313DE00831603135A0873
:100C6E0083120313DD000A128A1578250A128A11DF
:100C7E00831203135C0883160313E100831203131C
:100C8E005B0883160313E000831203135A088316BE
:100C9E000313DF0083120313590883160313DE00B8
:100CAE004D30C0004008B1006108AB006008AA00DA
:100CBE005F08A9005E08A8000A128A1500200A1211
:100CCE008A11831603132908B3002808B200DF30F7
:100CDE00B4000030B500C4300A128A154C210A1235
:100CEE008A11F5015A3083160313C0004008F6002E
:100CFE0001300A168A114E250A128A11C430F300E9
:100D0E000030F4000A168A11D7240A128A115730BD
:100D1E00F3008030F4000A168A11D7240A128A11C1
:100D2E0083120313871C9C2E9D2EC12E0930831611
:100D3E000313C0004008F5005430C1004108F6000E
:100D4E0001300A168A114E250A128A1102308312B8
:100D5E0003138900153083160313C2004B30C100F4
:100D6E00BD30C000C00BB92EC10BB92EC20BB92EAF
:100D7E00C02ED52E8718C42EC52ED52E093083161B
:100D8E000313C0004008F5005330C1004108F600BF
:100D9E0001300A168A114E250A128A118312031384
:100DAE000718DA2EDB2EFC2EF501403083160313C6
:100DBE00C0004008F60002300A168A114E250A12AB
:100DCE008A11013083120313890015308316031321
:100DDE00C2004B30C100BD30C000C00BF42EC10BA1
:100DEE00F42EC20BF42EFB2E0D2F071CFF2E002F00
:100DFE000D2FF5013D3083160313C0004008F60099
:100E0E0002300A168A114E250A128A118312031312
:100E1E00871D122F132F372F093083160313C0008F
:100E2E004008F5004930C1004108F60002300A16AC
:100E3E008A114E250A128A11043083120313890077
:100E4E00153083160313C2004B30C100BD30C000F5
:100E5E00C00B2F2FC10B2F2FC20B2F2F362F4B2F27
:100E6E0087193A2F3B2F4B2F093083160313C000DF
:100E7E004008F5004630C1004108F60002300A165F
:100E8E008A114E250A128A11831603136108F30084
:100E9E006008F2005F08F1005E08F0004130F700D4
:100EAE00F030F6000030F5000030F4000A168A111A
:100EBE005E270A128A110318652F662F7A2F0430C7
:100ECE00831203138800153083160313C2004B30B0
:100EDE00C100BD30C000C00B722FC10B722FC20BF0
:100EEE00722F792FD22F831603136108F300600837
:100EFE00F2005F08F1005E08F0004130F700F030BC
:100F0E00F6000030F5000030F4000A168A115E2754
:100F1E000A128A11031C942F952FD22F043083129C
:100F2E0003138900033083160313C2000830C10077
:100F3E007630C000C00BA12FC10BA12FC20BA12F69
:100F4E00000004308312031388000330831603134A
:100F5E00C2000830C1007630C000C00BB42FC10BE8
:100F6E00B42FC20BB42F000001308312031389007B
:100F7E00033083160313C2000830C1007630C00060
:100F8E00C00BC72FC10BC72FC20BC72F00000230DB
:100F9E00831203138900153083160313C2004B30DE
:100FAE00C100BD30C000C00BDA2FC10BDA2FC20B4F
:100FBE00DA2FE12F5730F3008030F4000A168A1131
:100FCE00D7240A128A11B92C0A128A110028831208
:100FDE000313EF0183160313E201E301E401E501BC
:100FEE00E601E701E801E901EA0183010A128A112B
:100FFE00622C0310831603132A0D2B0DAC002C0844
:10100E0083120313EE006E08031D0E280F281A28F4
:10101E00003083160313AB000030AA000030A90085
:10102E000030A8009128831603132808AC00290865
:10103E00AD002A08AE002B08AF001F300310AF0C16
:10104E00AE0CAD0CAC0CFF3E031D25282C08B000D9
:10105E00300883120313ED0083160313AA17FF3013
:10106E00A805FF30A905FF30AA050030AB05963064
:10107E0083120313EE02EE1F4528462864286E08DD
:10108E00803A973E03184C284D284E280F280130E1
:10109E00031083160313AB0CAA0CA90CA80CFF3E6D
:1010AE00031D4F280130AC002C0883120313EE07EA
:1010BE00031D622863284E287F2820306E02031CF1
:1010CE0069286A287A280F28013083160313AC008A
:1010DE000310A80DA90DAA0DAB0DAC0B6F28013096
:1010EE0083120313EE026E08031D7E287F286B28E1
:1010FE006D08031983288428912883160313A809E1
:10110E00A909AA09AB09A80A0319A90A0319AA0A67
:10111E000319AB0A0800F8007808031997289828D5
:10112E00AC28F31F9B289C28AC287009FA00710983
:10113E00FB007209FC007309FD00FA0A0319FB0A91
:10114E000319FC0A0319FD0AB4287308FD0072087E
:10115E00FC007108FB007008FA0073087204710439
:10116E007004031DBB28BC28C5280030F3000030D6
:10117E00F2000030F1000030F0004B299630F40000
:10118E007408F900D7280130F4007408F90701300B
:10119E000310FD0CFC0CFB0CFA0CFF3E031DCF28BC
:1011AE00FE307D05031DDC28DD28CA28F928013014
:1011BE00F4007408F9070130FA0700300318013003
:1011CE00FB07003003180130FC0700300318013014
:1011DE00FD0701300310FD0CFC0CFB0CFA0CFF3E5E
:1011EE00031DF128FF307D05031DFE28FF28DE2894
:1011FE000B290130F9020130F4000310FA0DFB0D3A
:10120E00FC0DFD0DF40B0429FC1B0E290F291529CD
:10121E000230790203181429152900297918182982
:10122E0019292129FF30FA05FF30FB057F30FC0517
:10123E00FF30FD050310F90C7908F400F501F601F5
:10124E00F70118300310F40DF50DF60DF70DFF3EF6
:10125E00031D29297408FA047508FB047608FC049A
:10126E007708FD04780803193D293E294329F31F09
:10127E00412942294329FD177D08F3007C08F2001D
:10128E007B08F1007A08F000080083160313BE00F5
:10129E00B230B6003608BB00382A25303F06031997
:1012AE0059295A2966293F08B6003E088400360897
:1012BE00831380000130B6003608BE07382AB90104
:1012CE007F293B08840083130008B6003608BF0050
:1012DE000230B6003608BB073F08B6003E08840051
:1012EE003608831380000130B6003608BE07382A50
:1012FE000130B107FF30310784000A168A110A2027
:10130E000A128A15BF00B600B7013708003A031952
:10131E00912973293608003A03194A2A633A0319A8
:10132E006829073A03199F290D3A03199F29732932
:10133E003B08840083130008BC00840A0008BD002B
:10134E000230B6003608BB07BD1FAE29AF29B8293B
:10135E000330B6003608B904BC09BD09BC0A03192E
:10136E00BD0ABF01BF0A3F08B6003607013E840022
:10137E000A168A110A200A128A15B7000A168A114D
:10138E000A200A128A15B80038083D02031DD12919
:10139E0037083C020318D429D529D629E029013073
:1013AE00B6003608BF0705303F06031DDF29E029CA
:1013BE00BA29390803390319E529E629F1292D300F
:1013CE00B6003E0884003608831380000130B60054
:1013DE003608BE073F08B6003608BA002F2A0A3074
:1013EE00F8000030F9003A08B6003607013E8400D6
:1013FE000A168A110A200A128A15F0000A168A1194
:10140E000A200A128A15F1003D08F3003C08F2008A
:10141E000A168A1120260A128A157108FB00700816
:10142E00FA000A168A11E6250A128A157808303E45
:10143E0083160313B7003708BF003F08B6003E08F7
:10144E0084003608831380000130B6003608BE07CC
:10145E00FF30B6003608BA073A0A031D372A382A73
:10146E00F6290130B107FF30310784000A168A11C0
:10147E000A200A128A15B6003608BF003F08031D5F
:10148E00492A4A2A54293E08840083138001080001
:10149E00831603133308F3003208F2003108F1000B
:1014AE003008F0000030F7000030F6000030F50094
:1014BE000030F4000A168A115E270A128A150318E4
:1014CE00692A6A2A792A213083160313E60000302E
:1014DE00E7000030B3000030B2000030B100003041
:1014EE00B0009A2B831603133308F3003208F20070
:1014FE003108F1003008F0000030F7000030F6003F
:10150E000030F5000030F4000A168A1164260A1223
:10151E008A15031C932A942AA32A223083160313B6
:10152E00E6000030E7000030B3000030B2000030BB
:10153E00B1000030B0009A2BBF3083120313DC00D1
:10154E008030DB000030DA000030D9004030A800D7
:10155E000030A7000030A6000030A500B430ED002A
:10156E006D08A40083160313330883120313A3001C
:10157E0083160313320883120313A2008316031378
:10158E00310883120313A10083160313300883124C
:10159E000313A0000A168A1102270A128A15831253
:1015AE0003132308AC002208AB002108AA00200870
:1015BE00A9000A128A1101210A128A158312031335
:1015CE002808E0002708DF002608DE002508DD00D9
:1015DE000A128A1578250A128A15831203135C08DB
:1015EE0083160313B300831203135B0883160313CE
:1015FE00B200831203135A0883160313B100831229
:10160E000313590883160313B000FF30B4070318F1
:10161E00B50AFF30B5073308A3003208A20031081F
:10162E00A1003008A0000B3083120313ED006D08EB
:10163E0083160313A4000830A5000030A6000A127A
:10164E008A1127200A128A15831603132308B30062
:10165E002208B2002108B1002008B000330883121E
:10166E000313DC0083160313320883120313DB000B
:10167E0083160313310883120313DA008316031340
:10168E00300883120313D9003F30A8003130A70071
:10169E007230A6001830A500831603133408F0002C
:1016AE003508F1000030F11BFF30F200F30001307D
:1016BE000A128A1592200A128A15730883120313CE
:1016CE00AC007208AB007108AA007008A9000A12DB
:1016DE008A1101210A128A15831203132808E000C9
:1016EE002708DF002608DE002508DD000A128A150D
:1016FE0078250A128A15831203135C0883160313C6
:10170E00B300831203135B0883160313B200831214
:10171E0003135A0883160313B100831203135908D7
:10172E0083160313B0000800831203134608803992
:10173E00C7004708D0004608C7004707C80048083A
:10174E00D700C51FAB2BAC2BAD2B57145708031965
:10175E00B12BB22BC22B570A031DB62BB72BBF2BA7
:10176E000030C6000030C5000030C4000030C30099
:10177E00C517C601CA2B0030C6000030C5000030A8
:10178E00C4000030C30042088039C7004708D006A5
:10179E004208C7004707C8004808D800C11FD82B09
:1017AE00D92BDA2B581458080319DE2BDF2BEF2B0D
:1017BE00580A031DE32BE42BEC2B0030C200003043
:1017CE00C1000030C0000030BF00C117C201F72BAE
:1017DE000030C2000030C1000030C0000030BF0039
:1017EE004208410440043F04031DFE2BFF2B182C1E
:1017FE000030C6000030C5000030C4000030C30009
:10180E008030C5047F30C6045008C7004708C604A0
:10181E004608C2004508C1004408C0004308BF0086
:10182E00772D5708031D1C2C1D2C262C0030C200B2
:10183E000030C1000030C0000030BF00772D5708C7
:10184E00C700C8014808CA0058084702C900031C4F
:10185E00CA0349087F3ED1004A080318013E003EE4
:10186E00D2004608CF004508CE004408CD004308FC
:10187E00CC000030C6000030C5000030C40000307F
:10188E00C3000030D6000030D5000030D400003048
:10189E00D300D8019C2C58080319562C572C772CA2
:1018AE000130C7000310CC0DCD0DCE0DCF0DC70BE3
:1018BE00592C0130C7000310C30DC40DC50DC60D44
:1018CE00C70B622CD61F6C2C6D2C6E2C4314013062
:1018DE00C7000310D30DD40DD50DD60DC70B702C2C
:1018EE0042084F02031D852C41084E02031D852C14
:1018FE0040084D02031D852C3F084C02031C882C0A
:10190E00892C982C56173F08CC024008031C400F18
:10191E00CD024108031C410FCE024208031C420FA8
:10192E00CF020130C7004708D8071A305802031CEF
:10193E00A12CA22C522C4F084E044D044C0403191A
:10194E00A92CAA2CC92C5314C92C0130C700031082
:10195E00C30DC40DC50DC60DC70BAE2CD61FB82CAE
:10196E00B92CBA2C43140130C7000310D30DD40D7B
:10197E00D50DD60DC70BBC2CFF30D1070318D20ADC
:10198E00FF30D207C51FCC2CCD2CAC2CD801D61FC6
:10199E00D12CD22CEE2CFF305305C700FF3054054E
:1019AE00C800FF305505C9007F305605CA004A08E9
:1019BE004904480447040319E52CE62CE92CD80108
:1019CE00D80AEE2C431CEC2CED2CEE2CE62C5808F1
:1019DE000319F22CF32C242D0130C3070030031809
:1019EE000130C407003003180130C507003003185A
:1019FE000130C607461C042D052D242D4308C700B3
:101A0E004408C8004508C9004608CA000130CB008A
:101A1E004A0DCA0CC90CC80CC70CCB0B0F2D4A08AB
:101A2E00C6004908C5004808C4004708C300013075
:101A3E00D1070318D20A0030D2075208803AFF00AD
:101A4E0080307F02031D2D2DFF305102031C302DDF
:101A5E00312D3F2DFF3083120313D1000030D20001
:101A6E000030C6000030C5000030C4000030C30096
:101A7E00831203135208803AFF0080307F02031D49
:101A8E004A2D0130510203184D2D4E2D5B2D831220
:101A9E000313D101D2010030C6000030C500003062
:101AAE00C4000030C300D001831203135108C700D5
:101ABE004708D700571C642D652D672DC5176B2D54
:101ACE007F30C7004708C5055708C7000310470CED
:101ADE00C8004808C6005008C7004708C6040F2CA7
:101AEE000800831203135C088039E1006108E900E5
:101AFE005C08E1006107E2006208EB00DB1F882D45
:101B0E00892D8A2D6B146B0803198E2D8F2D9F2D09
:101B1E006B0A031D932D942D9C2D0030DC0000309C
:101B2E00DB000030DA000030D900DB17DC01A72D16
:101B3E000030DC000030DB000030DA000030D9006D
:101B4E0060088039E1006108EA006A086906031935
:101B5E00B12DB22DB32D69176008E1006107E200C7
:101B6E006208EA00DF1FBC2DBD2DBE2D6A146A0867
:101B7E000319C22DC32DD32D6A0A031DC72DC82DDF
:101B8E00D02D0030E0000030DF000030DE000030ED
:101B9E00DD00DF17E001DB2D0030E0000030DF005C
:101BAE000030DE000030DD006B086A020318E02D05
:101BBE00E12D252E691FE42DE52DE92D8030E10064
:101BCE006108E9066B08E1006108EC006A08E100B3
:101BDE006108EB006C08E1006108EA005908E100B9
:101BEE006108EC005D08E1006108D9006C08E100B5
:101BFE006108DD005A08E1006108EC005E08E100B2
:101C0E006108DA006C08E1006108DE005B08E100A3
:101C1E006108EC005F08E1006108DB006C08E10080
:101C2E006108DF005C08E1006108EC006008E1007B
:101C3E006108DC006C08E1006108E000EC016A0854
:101C4E00E100E2016208E4006B086102E300031C9C
:101C5E00E4036408803AFF0080307F02031D392EB2
:101C6E001A306302031C3C2E3D2E7A2E8312031370
:101C7E005C085B045A045904031D462E482E01309D
:101C8E00492E0030E1006108EC000030DC0000302D
:101C9E00DB000030DA000030D9006A08E10061088C
:101CAE00EB00822E6C1C5C2E5D2E662E6C08E10005
:101CBE000310610C0138E2006208EC00682E03107C
:101CCE00EC0C591C6B2E6C2E6D2EEC170130E100B6
:101CDE005C0DDC0CDB0CDA0CD90CE10B6F2E013039
:101CEE00E1006108EB07831203136A086B02031C01
:101CFE00812E822E592E691B852E862ED12E6B0893
:101D0E00031D8A2E8B2E942E0030DC000030DB005B
:101D1E000030DA000030D900FF2F5D08D9075E08C9
:101D2E0003110318013E03199D2EDA075F080311F4
:101D3E000318013E0319A42EDB07600803110318D4
:101D4E00013E0319AB2EDC075C1CAE2EAF2E852F89
:101D5E006C1CB22EB32EBC2E6C08E1000310610C6D
:101D6E000138E2006208EC00BE2E0310EC0C591C88
:101D7E00C12EC22EC32EEC170130E1005C0DDC0C1F
:101D8E00DB0CDA0CD90CE10BC52E0130E100610839
:101D9E00EB07852F5C08803AFF006008803A7F02CF
:101DAE00031DE32E5F085B02031DE32E5E085A023D
:101DBE00031DE32E5D0859020318E62EE72E3F2F72
:101DCE00FF30E100FF30E200FF30E300FF30E400BF
:101DDE005D08E5005E08E6005F08E7006008E800C1
:101DEE005908E5025A08031C5A0FFE2EFF2EE60272
:101DFE005B08031C5B0F042F052FE7025C08031C16
:101E0E005C0F0A2F0B2FE8026508E107660803181E
:101E1E00660F122F132FE20767080318670F182F8C
:101E2E00192FE30768080318680AE4076408DC0042
:101E3E006308DB006208DA006108D9008030E10037
:101E4E006108E906EC09EC0A6C08031D2F2F302FF0
:101E5E004D2F0130D907003003180130DA0700305A
:101E6E0003180130DB07003003180130DC074D2F5B
:101E7E005D08D9025E08031C5E0FDA025F08031CC0
:101E8E005F0FDB026008031C600FDC025C085B0462
:101E9E005A045904031D542F552F812F6C08031D0E
:101EAE00592F5A2F812F0030DC000030DB0000301C
:101EBE00DA000030D900FF2F0130E1000310D90DF8
:101ECE00DA0DDB0DDC0DE10B652FEC1F6F2F702F84
:101EDE00712F59146C1C742F752F782F0314EC0D61
:101EEE007A2F0310EC0D6B0803197E2F7F2F812F95
:101EFE000130EB02DB1F842F852F632FEA01EC1FCD
:101F0E00892F8A2F982F6C087F3903198F2F902FC6
:101F1E00932FEA01EA0A982F591C962F972F982F84
:101F2E00902F6A0803199C2F9D2FD12F0130D907AE
:101F3E00003003180130DA07003003180130DB07D8
:101F4E00003003180130DC075C1CAE2FAF2FD12FF1
:101F5E005908E1005A08E2005B08E3005C08E4005F
:101F6E000130E500640DE40CE30CE20CE10CE50B32
:101F7E00B92F6408DC006308DB006208DA00610830
:101F8E00D9006B0A0319CC2FCD2FD12F0130E100D0
:101F9E006108EB076B0A0319D52FD62FDB2F6B08C1
:101FAE00031DDA2FDB2FE92F0030DC000030DB00C1
:101FBE000030DA000030D9006B08031DE72FE82F40
:101FCE00E92FE9016B1CEC2FED2FEF2FDB17F32F11
:101FDE007F30E1006108DB056B08E1000310610C46
:101FEE00E2006208DC00E91FFD2FFE2FFF2FDC1739
:101FFE000800FF1B0A2883137F1883170008840A22
:10200E000319FF0A080010308A000408840A8207A8
:10201E000034013400340A34003464340034E834BB
:10202E000334103427340034003400340034C43404
:10203E00FF347F343F348034EF34FF34BE34903479
:10204E00E134A9343E34EC3482347634BE348234F6
:10205E00AD342B343E340E343C34C334BD3487346B
:10206E00D13413343D3441347834D334BB34443416
:10207E004534543445344334543441344E3444346A
:10208E004F342E342E342E3400344E344F3420340C
:10209E00533448344F3443344B3400344E344F347D
:1020AE0020344D344F3456340034253464342534C2
:1020BE006334433400344E344834473400342034CF
:0A20CE002034003454343A34003456
:1029AE00EC2C7408FF00730884000A168A110020AC
:1029BE000A168A110A168A11B0250A168A110130D2
:1029CE00F3070318F40A0030F40774088312031394
:1029DE00FF00730884000A168A1100200A168A1155
:1029EE00003A031DFB2CFC2CD82C0800F800F40137
:1029FE00F5017008F200F3017208F6007308F70093
:102A0E00781C0A2D0B2D112D7608F4070318F50AE4
:102A1E007708F50701300310F60DF70DFF3E031D85
:102A2E00122D0310F80C7808031D1E2D1F2D072DD7
:102A3E007508F1007408F00008008316031388016E
:102A4E002730F400F530F300F30B2B2DF40B2B2D68
:102A5E0002300A168A117A250A168A1128300A16A9
:102A6E008A117A250A168A1101300A168A117A25D8
:102A7E000A168A110C300A168A117A250A168A113C
:102A8E0006300A168A117A250A168A110800F800ED
:102A9E00023078020318542D552D622D75080F390A
:102AAE008038F7007708F90079080A168A117A2516
:102ABE000A168A116E2D75080F39C038F70077087F
:102ACE00F90079080A168A117A250A168A117608EB
:102ADE00F3000030031D8030F4000A168A11D7244B
:102AEE000A168A110800F200F0307205F000831207
:102AFE00031308080F3970048800081088140000AA
:102B0E008312031388100330F1009730F000F00B9E
:102B1E008E2DF10B8E2D932D7208F00004300310C4
:102B2E00F00DFF3E031D962D8312031308080F3977
:102B3E007004880088140000831203138810083074
:102B4E00F100C930F000F00BAA2DF10BAA2DAF2D1C
:102B5E000800F200F0307205F0008312031308082B
:102B6E000F397004880008148814000083120313B0
:102B7E0088100330F1009730F000F00BC42DF10BEC
:102B8E00C42DC92D7208F00004300310F00DFF3E65
:102B9E00031DCC2D8312031308080F39700488000F
:102BAE00881400008312031388100830F100C93016
:102BBE00F000F00BE02DF10BE02DE52D080078086C
:102BCE0079040319EB2DEC2D1B2EFD01FD0AFA2DB8
:102BDE0001300310F80DF90DFF3E031DF02D0130ED
:102BEE00FC007C08FD07F91FFD2DFE2DEF2D790849
:102BFE007B02031D042E78087A02031C072E082E72
:102C0E000E2E7808FA027908031CFB03FB02013032
:102C1E000310F90CF80CFF3E031D0F2E0130FD02C0
:102C2E00031D1A2E1B2EFE2D7B08F9007A08F800C4
:102C3E000800F501F601700871040319272E282EDD
:102C4E005F2EF701F70A362E01300310F00DF10D4D
:102C5E00FF3E031D2C2E0130F4007408F707F11F00
:102C6E00392E3A2E2B2E01300310F50DF60DFF3EA8
:102C7E00031D3B2E71087302031D472E700872024E
:102C8E00031C4A2E4B2E522E7008F2027108031CA2
:102C9E00F303F302751401300310F10CF00CFF3E38
:102CAE00031D532E0130F702031D5E2E5F2E3A2EAA
:102CBE007608F1007508F000080000307005F80085
:102CCE0000307105F90080307205FA007F3073050F
:102CDE00FB007B087A0479047804031D772E782E86
:102CEE00802E0030F3000030F2000030F100003092
:102CFE00F00000307405F80000307505F9008030E2
:102D0E007605FA007F307705FB007B087A0479049C
:102D1E007804031D932E942E9C2E0030F700003065
:102D2E00F6000030F5000030F40077087306031D3E
:102D3E00AA2E76087206031DAA2E75087106031DAB
:102D4E00AA2E740870060319AD2EAE2EB02E0310E7
:102D5E00B12E03140800803083160313A306270830
:102D6E0083120313DC008316031326088312031346
:102D7E00DB0083160313250883120313DA00831670
:102D8E000313240883120313D90083160313230895
:102D9E0083120313E0008316031322088312031316
:102DAE00DF0083160313210883120313DE0083163C
:102DBE000313200883120313DD000A128A157825E7
:102DCE000A168A11831203135C0883160313A300D9
:102DDE00831203135B0883160313A20083120313DB
:102DEE005A0883160313A10083120313590883167E
:102DFE000313A0000800831203132308F300220814
:102E0E00F2002108F1002008F0000030F700003039
:102E1E00F6000030F5000030F4000A168A11642620
:102E2E000A168A11031C1C2F1D2F2E2F831203131B
:102E3E002408840083138001840A80010030A300DB
:102E4E000030A2000030A1000030A0005D2F8312E0
:102E5E00031323087F39FC00FD010310FC0DFD0D4B
:102E6E00240884007C0883138000840A7D08800077
:102E7E00220D220D0139FC00FD01240884007C087E
:102E8E008004840A7D088004240884008230800730
:102E9E00840F00080318000AFF00FF307F07800030
:102EAE008403230880393F38A300A21308000030A2
:102EBE007005F80000307105F90080307205FA00D7
:102ECE007F307305FB007B087A0479047804031DB8
:102EDE00712F722F7A2F0030F3000030F200003085
:102EEE00F1000030F00000307405F8000030750578
:102EFE00F90080307605FA007F307705FB007B08FD
:102F0E007A0479047804031D8D2F8E2F962F0030AE
:102F1E00F7000030F6000030F5000030F400F31F2B
:102F2E00992F9A2FBE2F0030F8000030F900003094
:102F3E00FA008030FB007008F8027108031C710F54
:102F4E00A92FAA2FF9027208031C720FAF2FB02FF0
:102F5E00FA027308031C730FB52FB62FFB027B0802
:102F6E00F3007A08F2007908F1007808F000F71FF4
:102F7E00C12FC22FE62F0030F8000030F9000030CC
:102F8E00FA008030FB007408F8027508031C750FF8
:102F9E00D12FD22FF9027608031C760FD72FD82FF8
:102FAE00FA027708031C770FDD2FDE2FFB027B085A
:102FBE00F7007A08F6007908F5007808F4008030FA
:102FCE00F3068030F70677087302031DF82F760894
:102FDE007202031DF82F75087102031DF82F740875
:102FEE0070020318FB2FFC2FFE2F0310FF2F03146C
:022FFE000800C9
:04400E00D520FF3F7B
:00000001FF
